{
  "contractName": "ProsperNetNft",
  "abi": [
    {
      "anonymous": false,
      "inputs": [
        {
          "indexed": false,
          "internalType": "string",
          "name": "id",
          "type": "string"
        },
        {
          "indexed": false,
          "internalType": "uint256",
          "name": "price",
          "type": "uint256"
        },
        {
          "indexed": false,
          "internalType": "address",
          "name": "artist",
          "type": "address"
        },
        {
          "indexed": false,
          "internalType": "address",
          "name": "previousOwner",
          "type": "address"
        },
        {
          "indexed": false,
          "internalType": "address",
          "name": "owner",
          "type": "address"
        },
        {
          "indexed": false,
          "internalType": "enum ProsperNetNft.nftStatusType",
          "name": "status",
          "type": "uint8"
        }
      ],
      "name": "NftCreated",
      "type": "event"
    },
    {
      "anonymous": false,
      "inputs": [
        {
          "indexed": false,
          "internalType": "string",
          "name": "id",
          "type": "string"
        },
        {
          "indexed": false,
          "internalType": "uint256",
          "name": "price",
          "type": "uint256"
        },
        {
          "indexed": false,
          "internalType": "address",
          "name": "owner",
          "type": "address"
        }
      ],
      "name": "PriceChanged",
      "type": "event"
    },
    {
      "anonymous": false,
      "inputs": [
        {
          "indexed": false,
          "internalType": "string",
          "name": "id",
          "type": "string"
        },
        {
          "indexed": false,
          "internalType": "address",
          "name": "owner",
          "type": "address"
        },
        {
          "indexed": false,
          "internalType": "enum ProsperNetNft.nftStatusType",
          "name": "status",
          "type": "uint8"
        }
      ],
      "name": "openedForSale",
      "type": "event"
    },
    {
      "inputs": [],
      "name": "ROYALTY_RATIO",
      "outputs": [
        {
          "internalType": "uint256",
          "name": "",
          "type": "uint256"
        }
      ],
      "stateMutability": "view",
      "type": "function",
      "constant": true
    },
    {
      "inputs": [
        {
          "internalType": "uint256",
          "name": "",
          "type": "uint256"
        }
      ],
      "name": "nftCollection",
      "outputs": [
        {
          "internalType": "string",
          "name": "id",
          "type": "string"
        },
        {
          "internalType": "uint256",
          "name": "price",
          "type": "uint256"
        },
        {
          "internalType": "address payable",
          "name": "artist",
          "type": "address"
        },
        {
          "internalType": "address",
          "name": "previousOwner",
          "type": "address"
        },
        {
          "internalType": "address payable",
          "name": "owner",
          "type": "address"
        },
        {
          "internalType": "enum ProsperNetNft.nftStatusType",
          "name": "status",
          "type": "uint8"
        }
      ],
      "stateMutability": "view",
      "type": "function",
      "constant": true
    },
    {
      "inputs": [],
      "name": "nftCount",
      "outputs": [
        {
          "internalType": "uint256",
          "name": "",
          "type": "uint256"
        }
      ],
      "stateMutability": "view",
      "type": "function",
      "constant": true
    },
    {
      "inputs": [],
      "name": "nftDummyCollection",
      "outputs": [
        {
          "internalType": "string",
          "name": "id",
          "type": "string"
        },
        {
          "internalType": "uint256",
          "name": "price",
          "type": "uint256"
        },
        {
          "internalType": "address payable",
          "name": "artist",
          "type": "address"
        },
        {
          "internalType": "address",
          "name": "previousOwner",
          "type": "address"
        },
        {
          "internalType": "address payable",
          "name": "owner",
          "type": "address"
        },
        {
          "internalType": "enum ProsperNetNft.nftStatusType",
          "name": "status",
          "type": "uint8"
        }
      ],
      "stateMutability": "view",
      "type": "function",
      "constant": true
    },
    {
      "inputs": [
        {
          "internalType": "string",
          "name": "_id",
          "type": "string"
        }
      ],
      "name": "nftDoExist",
      "outputs": [
        {
          "internalType": "bool",
          "name": "",
          "type": "bool"
        }
      ],
      "stateMutability": "view",
      "type": "function",
      "constant": true
    },
    {
      "inputs": [
        {
          "internalType": "string",
          "name": "_id",
          "type": "string"
        },
        {
          "internalType": "uint256",
          "name": "_price",
          "type": "uint256"
        }
      ],
      "name": "createNft",
      "outputs": [],
      "stateMutability": "nonpayable",
      "type": "function"
    },
    {
      "inputs": [
        {
          "internalType": "string",
          "name": "_id",
          "type": "string"
        },
        {
          "internalType": "uint256",
          "name": "newPrice",
          "type": "uint256"
        }
      ],
      "name": "changePrice",
      "outputs": [],
      "stateMutability": "nonpayable",
      "type": "function"
    },
    {
      "inputs": [
        {
          "internalType": "string",
          "name": "_id",
          "type": "string"
        }
      ],
      "name": "openToSale",
      "outputs": [],
      "stateMutability": "nonpayable",
      "type": "function"
    },
    {
      "inputs": [
        {
          "internalType": "string",
          "name": "_id",
          "type": "string"
        }
      ],
      "name": "notForSale",
      "outputs": [],
      "stateMutability": "nonpayable",
      "type": "function"
    },
    {
      "inputs": [
        {
          "internalType": "string",
          "name": "_id",
          "type": "string"
        }
      ],
      "name": "purchaseNft",
      "outputs": [],
      "stateMutability": "payable",
      "type": "function",
      "payable": true
    }
  ],
  "bytecode": "0x6080604052600060015534801561001557600080fd5b50611fd6806100256000396000f3fe6080604052600436106100915760003560e01c80639321f03e116100595780639321f03e1461017e57806395f43b70146101a9578063c4d97323146101d9578063ca6384cb14610216578063d6b299fa1461023257610091565b80630af2c6ca146100965780631fa19596146100c15780633576c390146100ea5780633e73720c146101135780637c711b271461013c575b600080fd5b3480156100a257600080fd5b506100ab61025b565b6040516100b89190611ad6565b60405180910390f35b3480156100cd57600080fd5b506100e860048036038101906100e391906116cc565b610261565b005b3480156100f657600080fd5b50610111600480360381019061010c919061168b565b610301565b005b34801561011f57600080fd5b5061013a600480360381019061013591906116cc565b6104cc565b005b34801561014857600080fd5b50610163600480360381019061015e9190611720565b6107a5565b60405161017596959493929190611986565b60405180910390f35b34801561018a57600080fd5b506101936108e6565b6040516101a09190611ad6565b60405180910390f35b3480156101b557600080fd5b506101be6108ec565b6040516101d096959493929190611986565b60405180910390f35b3480156101e557600080fd5b5061020060048036038101906101fb919061168b565b610a0b565b60405161020d91906118ef565b60405180910390f35b610230600480360381019061022b919061168b565b610ab6565b005b34801561023e57600080fd5b506102596004803603810190610254919061168b565b610ccb565b005b60015481565b600061026c83610e95565b9050818160200181815250506102828382611271565b6102c1576040517f08c379a00000000000000000000000000000000000000000000000000000000081526004016102b890611ab6565b60405180910390fd5b7fbf9c24a19cd24d9eb6899653ed0fce51f02add340225ad6b8bdbeab0900d25c48383336040516102f493929190611948565b60405180910390a1505050565b600061030c82610e95565b905060006001811115610348577f4e487b7100000000000000000000000000000000000000000000000000000000600052602160045260246000fd5b8160a001516001811115610385577f4e487b7100000000000000000000000000000000000000000000000000000000600052602160045260246000fd5b14156103c6576040517f08c379a00000000000000000000000000000000000000000000000000000000081526004016103bd90611a76565b60405180910390fd5b60008160a001906001811115610405577f4e487b7100000000000000000000000000000000000000000000000000000000600052602160045260246000fd5b9081600181111561043f577f4e487b7100000000000000000000000000000000000000000000000000000000600052602160045260246000fd5b8152505061044d8282611271565b61048c576040517f08c379a000000000000000000000000000000000000000000000000000000000815260040161048390611ab6565b60405180910390fd5b7fa2243c50603aa714029bf809e52a2cff2114c234a338e76f31e032db8306bf9c823360006040516104c09392919061190a565b60405180910390a15050565b600015156104d983610a0b565b15151461051b576040517f08c379a000000000000000000000000000000000000000000000000000000000815260040161051290611a96565b60405180910390fd5b60006001905060006040518060c001604052808581526020018481526020013373ffffffffffffffffffffffffffffffffffffffff1681526020013373ffffffffffffffffffffffffffffffffffffffff1681526020013373ffffffffffffffffffffffffffffffffffffffff1681526020018360018111156105c7577f4e487b7100000000000000000000000000000000000000000000000000000000600052602160045260246000fd5b8152509080600181540180825580915050600190039060005260206000209060050201600090919091909150600082015181600001908051906020019061060f9291906114bb565b506020820151816001015560408201518160020160006101000a81548173ffffffffffffffffffffffffffffffffffffffff021916908373ffffffffffffffffffffffffffffffffffffffff16021790555060608201518160030160006101000a81548173ffffffffffffffffffffffffffffffffffffffff021916908373ffffffffffffffffffffffffffffffffffffffff16021790555060808201518160040160006101000a81548173ffffffffffffffffffffffffffffffffffffffff021916908373ffffffffffffffffffffffffffffffffffffffff16021790555060a08201518160040160146101000a81548160ff02191690836001811115610740577f4e487b7100000000000000000000000000000000000000000000000000000000600052602160045260246000fd5b021790555050506001600081548092919061075a90611d66565b91905055507fa816ab56ed288d911074c67cc4fb4754b827346aacee483238ee92344c4125f1838333333386604051610798969594939291906119ee565b60405180910390a1505050565b600081815481106107b557600080fd5b90600052602060002090600502016000915090508060000180546107d890611d03565b80601f016020809104026020016040519081016040528092919081815260200182805461080490611d03565b80156108515780601f1061082657610100808354040283529160200191610851565b820191906000526020600020905b81548152906001019060200180831161083457829003601f168201915b5050505050908060010154908060020160009054906101000a900473ffffffffffffffffffffffffffffffffffffffff16908060030160009054906101000a900473ffffffffffffffffffffffffffffffffffffffff16908060040160009054906101000a900473ffffffffffffffffffffffffffffffffffffffff16908060040160149054906101000a900460ff16905086565b6103e881565b60028060000180546108fd90611d03565b80601f016020809104026020016040519081016040528092919081815260200182805461092990611d03565b80156109765780601f1061094b57610100808354040283529160200191610976565b820191906000526020600020905b81548152906001019060200180831161095957829003601f168201915b5050505050908060010154908060020160009054906101000a900473ffffffffffffffffffffffffffffffffffffffff16908060030160009054906101000a900473ffffffffffffffffffffffffffffffffffffffff16908060040160009054906101000a900473ffffffffffffffffffffffffffffffffffffffff16908060040160149054906101000a900460ff16905086565b600080600090505b600080549050811015610aab57828051906020012060008281548110610a62577f4e487b7100000000000000000000000000000000000000000000000000000000600052603260045260246000fd5b9060005260206000209060050201600001604051610a8091906118d8565b60405180910390201415610a98576001915050610ab1565b8080610aa390611d66565b915050610a13565b50600090505b919050565b6000610ac182610e95565b90508060200151341015610b0a576040517f08c379a0000000000000000000000000000000000000000000000000000000008152600401610b0190611a56565b60405180910390fd5b60006127106103e834610b1d9190611bb4565b610b279190611b83565b9050816080015173ffffffffffffffffffffffffffffffffffffffff166108fc8234610b539190611c0e565b9081150290604051600060405180830381858888f19350505050158015610b7e573d6000803e3d6000fd5b50816040015173ffffffffffffffffffffffffffffffffffffffff166108fc829081150290604051600060405180830381858888f19350505050158015610bc9573d6000803e3d6000fd5b508160800151826060019073ffffffffffffffffffffffffffffffffffffffff16908173ffffffffffffffffffffffffffffffffffffffff168152505033826080019073ffffffffffffffffffffffffffffffffffffffff16908173ffffffffffffffffffffffffffffffffffffffff168152505060018260a001906001811115610c7d577f4e487b7100000000000000000000000000000000000000000000000000000000600052602160045260246000fd5b90816001811115610cb7577f4e487b7100000000000000000000000000000000000000000000000000000000600052602160045260246000fd5b81525050610cc58383611271565b50505050565b6000610cd682610e95565b9050600180811115610d11577f4e487b7100000000000000000000000000000000000000000000000000000000600052602160045260246000fd5b8160a001516001811115610d4e577f4e487b7100000000000000000000000000000000000000000000000000000000600052602160045260246000fd5b1415610d8f576040517f08c379a0000000000000000000000000000000000000000000000000000000008152600401610d8690611a76565b60405180910390fd5b60018160a001906001811115610dce577f4e487b7100000000000000000000000000000000000000000000000000000000600052602160045260246000fd5b90816001811115610e08577f4e487b7100000000000000000000000000000000000000000000000000000000600052602160045260246000fd5b81525050610e168282611271565b610e55576040517f08c379a0000000000000000000000000000000000000000000000000000000008152600401610e4c90611ab6565b60405180910390fd5b7fa2243c50603aa714029bf809e52a2cff2114c234a338e76f31e032db8306bf9c82336000604051610e899392919061190a565b60405180910390a15050565b610e9d611541565b60005b6000805490508110156111ae57828051906020012060008281548110610eef577f4e487b7100000000000000000000000000000000000000000000000000000000600052603260045260246000fd5b9060005260206000209060050201600001604051610f0d91906118d8565b6040518091039020141561119b5760008181548110610f55577f4e487b7100000000000000000000000000000000000000000000000000000000600052603260045260246000fd5b90600052602060002090600502016040518060c0016040529081600082018054610f7e90611d03565b80601f0160208091040260200160405190810160405280929190818152602001828054610faa90611d03565b8015610ff75780601f10610fcc57610100808354040283529160200191610ff7565b820191906000526020600020905b815481529060010190602001808311610fda57829003601f168201915b50505050508152602001600182015481526020016002820160009054906101000a900473ffffffffffffffffffffffffffffffffffffffff1673ffffffffffffffffffffffffffffffffffffffff1673ffffffffffffffffffffffffffffffffffffffff1681526020016003820160009054906101000a900473ffffffffffffffffffffffffffffffffffffffff1673ffffffffffffffffffffffffffffffffffffffff1673ffffffffffffffffffffffffffffffffffffffff1681526020016004820160009054906101000a900473ffffffffffffffffffffffffffffffffffffffff1673ffffffffffffffffffffffffffffffffffffffff1673ffffffffffffffffffffffffffffffffffffffff1681526020016004820160149054906101000a900460ff166001811115611157577f4e487b7100000000000000000000000000000000000000000000000000000000600052602160045260246000fd5b600181111561118f577f4e487b7100000000000000000000000000000000000000000000000000000000600052602160045260246000fd5b8152505091505061126c565b80806111a690611d66565b915050610ea0565b506040518060c0016040528060405180602001604052806000815250815260200160008152602001600073ffffffffffffffffffffffffffffffffffffffff168152602001600073ffffffffffffffffffffffffffffffffffffffff168152602001600073ffffffffffffffffffffffffffffffffffffffff168152602001600180811115611266577f4e487b7100000000000000000000000000000000000000000000000000000000600052602160045260246000fd5b81525090505b919050565b600080600090505b6000805490508110156114af578380519060200120600082815481106112c8577f4e487b7100000000000000000000000000000000000000000000000000000000600052603260045260246000fd5b90600052602060002090600502016000016040516112e691906118d8565b6040518091039020141561149c57826000828154811061132f577f4e487b7100000000000000000000000000000000000000000000000000000000600052603260045260246000fd5b906000526020600020906005020160008201518160000190805190602001906113599291906114bb565b506020820151816001015560408201518160020160006101000a81548173ffffffffffffffffffffffffffffffffffffffff021916908373ffffffffffffffffffffffffffffffffffffffff16021790555060608201518160030160006101000a81548173ffffffffffffffffffffffffffffffffffffffff021916908373ffffffffffffffffffffffffffffffffffffffff16021790555060808201518160040160006101000a81548173ffffffffffffffffffffffffffffffffffffffff021916908373ffffffffffffffffffffffffffffffffffffffff16021790555060a08201518160040160146101000a81548160ff0219169083600181111561148a577f4e487b7100000000000000000000000000000000000000000000000000000000600052602160045260246000fd5b021790555090505060019150506114b5565b80806114a790611d66565b915050611279565b50600090505b92915050565b8280546114c790611d03565b90600052602060002090601f0160209004810192826114e95760008555611530565b82601f1061150257805160ff1916838001178555611530565b82800160010185558215611530579182015b8281111561152f578251825591602001919060010190611514565b5b50905061153d91906115f1565b5090565b6040518060c001604052806060815260200160008152602001600073ffffffffffffffffffffffffffffffffffffffff168152602001600073ffffffffffffffffffffffffffffffffffffffff168152602001600073ffffffffffffffffffffffffffffffffffffffff168152602001600060018111156115eb577f4e487b7100000000000000000000000000000000000000000000000000000000600052602160045260246000fd5b81525090565b5b8082111561160a5760008160009055506001016115f2565b5090565b600061162161161c84611b16565b611af1565b90508281526020810184848401111561163957600080fd5b611644848285611cc1565b509392505050565b600082601f83011261165d57600080fd5b813561166d84826020860161160e565b91505092915050565b60008135905061168581611f89565b92915050565b60006020828403121561169d57600080fd5b600082013567ffffffffffffffff8111156116b757600080fd5b6116c38482850161164c565b91505092915050565b600080604083850312156116df57600080fd5b600083013567ffffffffffffffff8111156116f957600080fd5b6117058582860161164c565b925050602061171685828601611676565b9150509250929050565b60006020828403121561173257600080fd5b600061174084828501611676565b91505092915050565b61175281611c54565b82525050565b61176181611c42565b82525050565b61177081611c66565b82525050565b6000815461178381611d03565b61178d8186611b67565b945060018216600081146117a857600181146117b9576117ec565b60ff198316865281860193506117ec565b6117c285611b47565b60005b838110156117e4578154818901526001820191506020810190506117c5565b838801955050505b50505092915050565b6117fe81611caf565b82525050565b600061180f82611b5c565b6118198185611b72565b9350611829818560208601611cd0565b61183281611e9a565b840191505092915050565b600061184a601283611b72565b915061185582611eab565b602082019050919050565b600061186d602583611b72565b915061187882611ed4565b604082019050919050565b6000611890601283611b72565b915061189b82611f23565b602082019050919050565b60006118b3601383611b72565b91506118be82611f4c565b602082019050919050565b6118d281611ca5565b82525050565b60006118e48284611776565b915081905092915050565b60006020820190506119046000830184611767565b92915050565b600060608201905081810360008301526119248186611804565b90506119336020830185611758565b61194060408301846117f5565b949350505050565b600060608201905081810360008301526119628186611804565b905061197160208301856118c9565b61197e6040830184611758565b949350505050565b600060c08201905081810360008301526119a08189611804565b90506119af60208301886118c9565b6119bc6040830187611749565b6119c96060830186611758565b6119d66080830185611749565b6119e360a08301846117f5565b979650505050505050565b600060c0820190508181036000830152611a088189611804565b9050611a1760208301886118c9565b611a246040830187611758565b611a316060830186611758565b611a3e6080830185611758565b611a4b60a08301846117f5565b979650505050505050565b60006020820190508181036000830152611a6f8161183d565b9050919050565b60006020820190508181036000830152611a8f81611860565b9050919050565b60006020820190508181036000830152611aaf81611883565b9050919050565b60006020820190508181036000830152611acf816118a6565b9050919050565b6000602082019050611aeb60008301846118c9565b92915050565b6000611afb611b0c565b9050611b078282611d35565b919050565b6000604051905090565b600067ffffffffffffffff821115611b3157611b30611e6b565b5b611b3a82611e9a565b9050602081019050919050565b60008190508160005260206000209050919050565b600081519050919050565b600081905092915050565b600082825260208201905092915050565b6000611b8e82611ca5565b9150611b9983611ca5565b925082611ba957611ba8611dde565b5b828204905092915050565b6000611bbf82611ca5565b9150611bca83611ca5565b9250817fffffffffffffffffffffffffffffffffffffffffffffffffffffffffffffffff0483118215151615611c0357611c02611daf565b5b828202905092915050565b6000611c1982611ca5565b9150611c2483611ca5565b925082821015611c3757611c36611daf565b5b828203905092915050565b6000611c4d82611c85565b9050919050565b6000611c5f82611c85565b9050919050565b60008115159050919050565b6000819050611c8082611f75565b919050565b600073ffffffffffffffffffffffffffffffffffffffff82169050919050565b6000819050919050565b6000611cba82611c72565b9050919050565b82818337600083830152505050565b60005b83811015611cee578082015181840152602081019050611cd3565b83811115611cfd576000848401525b50505050565b60006002820490506001821680611d1b57607f821691505b60208210811415611d2f57611d2e611e3c565b5b50919050565b611d3e82611e9a565b810181811067ffffffffffffffff82111715611d5d57611d5c611e6b565b5b80604052505050565b6000611d7182611ca5565b91507fffffffffffffffffffffffffffffffffffffffffffffffffffffffffffffffff821415611da457611da3611daf565b5b600182019050919050565b7f4e487b7100000000000000000000000000000000000000000000000000000000600052601160045260246000fd5b7f4e487b7100000000000000000000000000000000000000000000000000000000600052601260045260246000fd5b7f4e487b7100000000000000000000000000000000000000000000000000000000600052602160045260246000fd5b7f4e487b7100000000000000000000000000000000000000000000000000000000600052602260045260246000fd5b7f4e487b7100000000000000000000000000000000000000000000000000000000600052604160045260246000fd5b6000601f19601f8301169050919050565b7f4e6f7420656e6f75676820637265646974730000000000000000000000000000600082015250565b7f73746174757320697320616c726561647920617320706572207265717569726560008201527f6d656e7473000000000000000000000000000000000000000000000000000000602082015250565b7f4e465420616c7265616479206578697374730000000000000000000000000000600082015250565b7f6e6f206e6674206f626a65637420666f756e6400000000000000000000000000600082015250565b60028110611f8657611f85611e0d565b5b50565b611f9281611ca5565b8114611f9d57600080fd5b5056fea2646970667358221220ecb0b465fed1ab88561d7ef7c91b41871e16ee4ea7bfb2c6696323d2b01ea5d164736f6c63430008040033",
  "immutableReferences": {},
  "source": "// SPDX-License-Identifier: GPL-3.0\n\npragma solidity >=0.7.0 <0.9.0;\n\npragma experimental ABIEncoderV2;\n\ncontract ProsperNetNft {\n    \n    enum nftStatusType\n    {\n        forSale, notForSale\n    }\n    \n    struct Nft{\n        string id; //ipfs id\n        uint price; //wei\n        address payable artist;\n        address previousOwner;\n        address payable owner;\n        nftStatusType status;\n    }\n    \n    event NftCreated(\n        string id, //ipfs id\n        uint price, //wei\n        address artist,\n        address previousOwner,\n        address owner,\n        nftStatusType status\n    );\n    \n    event PriceChanged(\n        string id, //ipfs id\n        uint price, //wei\n        address owner\n    );\n    \n    event openedForSale(\n        string id, //ipfs id\n        address owner,\n        nftStatusType status\n    );\n    \n    // mapping(string => Nft) nftCollection; //Nft.id -> Nft object\n    Nft[] public nftCollection;\n    uint public nftCount = 0;\n    Nft public nftDummyCollection;\n    uint constant public ROYALTY_RATIO = 1000; //scale: 1% = 100 ROYALTY_RATION\n\n    function nftDoExist(string memory _id) public view returns (bool)\n    {\n        for (uint index = 0; index < nftCollection.length; index++) {\n            if( keccak256(bytes(nftCollection[index].id)) == keccak256(bytes(_id)) ){\n                return true;\n            }\n        }\n        return false;\n    }\n\n    function getNft(string memory _id) private view returns (Nft memory)\n    {\n        for (uint index = 0; index < nftCollection.length; index++) {\n            if( keccak256(bytes(nftCollection[index].id)) == keccak256(bytes(_id)) ){\n                return nftCollection[index];\n            }\n        }\n        return Nft(\"\",0, payable(address (0x0)), address(0), payable(address(0)), nftStatusType.notForSale);\n    }\n\n    function updateNft(string memory _id, Nft memory updatedNft) private returns (bool)\n    {\n        for (uint index = 0; index < nftCollection.length; index++) {\n            if( keccak256(bytes(nftCollection[index].id)) == keccak256(bytes(_id)) ){\n                nftCollection[index] = updatedNft;\n                return true;\n            }\n        }\n        return false;\n    }\n\n    function createNft(string memory _id, uint _price) public\n    {\n        require( nftDoExist(_id) == false, \"NFT already exists\" );\n        nftStatusType status = nftStatusType.notForSale;\n        // nftCollection[_id] = Nft(_id, _price, msg.sender, msg.sender, msg.sender, status);\n        nftCollection.push( Nft(_id, _price, payable(msg.sender), msg.sender, payable(msg.sender), status) );\n        // nftDummyCollection = nftCollection[_id];\n        nftCount++;\n        emit NftCreated(_id, _price, msg.sender,msg.sender, msg.sender, status);\n    }\n    \n    function changePrice(string memory _id, uint newPrice) public\n    {\n        // nftCollection[_id].price = newPrice;\n        Nft memory nft = getNft(_id);\n        nft.price = newPrice;\n\n        require( updateNft(_id, nft), \"no nft object found\");\n        emit PriceChanged(_id, newPrice, msg.sender);\n    }\n    \n    function openToSale(string memory _id) public\n    {\n        // nftCollection[_id].status = nftStatusType.forSale;\n        Nft memory nft = getNft(_id);\n\n        require( nft.status != nftStatusType.forSale , \"status is already as per requirements\");\n        nft.status = nftStatusType.forSale;\n\n        require( updateNft(_id, nft), \"no nft object found\");\n\n        emit openedForSale(_id, msg.sender, nftStatusType.forSale);\n    }\n    \n    function notForSale(string memory _id) public \n    {\n        // nftCollection[_id].status = nftStatusType.forSale;\n        Nft memory nft = getNft(_id);\n\n        require( nft.status != nftStatusType.notForSale , \"status is already as per requirements\");\n        nft.status = nftStatusType.notForSale;\n\n        require( updateNft(_id, nft), \"no nft object found\");\n\n        emit openedForSale(_id, msg.sender, nftStatusType.forSale);\n    }\n\n    //=========Transactions==============\n\n    function purchaseNft(string memory _id) public payable {\n\n        Nft memory _nft = getNft(_id);\n\n        require(msg.value >= _nft.price, \"Not enough credits\");\n\n        // require(_nft.status == nftStatusType.forSale);\n\n        // require(_seller != msg.sender);\n\n        uint royaltyAmt = (msg.value * ROYALTY_RATIO )/10000;\n\n        payable(address(_nft.owner)).transfer(msg.value - royaltyAmt);\n        payable(address(_nft.artist)).transfer(royaltyAmt);\n\n        _nft.previousOwner = _nft.owner;\n        _nft.owner = payable(msg.sender);\n        _nft.status = nftStatusType.notForSale;\n\n        updateNft(_id, _nft);\n    }\n\n\n}",
  "sourcePath": "/home/priyank/Desktop/prospernet/Marketplace/contracts/ProsperNetNft.sol",
  "compiler": {
    "name": "solc",
    "version": "0.8.4+commit.c7e474f2.Emscripten.clang"
  },
  "schemaVersion": "3.4.1",
  "updatedAt": "2021-06-02T08:54:42.875Z",
  "networkType": "ethereum",
  "devdoc": {
    "kind": "dev",
    "methods": {},
    "version": 1
  },
  "userdoc": {
    "kind": "user",
    "methods": {},
    "version": 1
  }
}